{
  "_format": "hh-sol-artifact-1",
  "contractName": "AurumV1core",
  "sourceName": "contracts/AurumV1core.sol",
  "abi": [
    {
      "inputs": [
        {
          "internalType": "uint256",
          "name": "_Borrow_interestRate",
          "type": "uint256"
        },
        {
          "internalType": "uint256",
          "name": "_Lending_interestRate",
          "type": "uint256"
        },
        {
          "internalType": "uint256",
          "name": "_maxLtv",
          "type": "uint256"
        }
      ],
      "stateMutability": "payable",
      "type": "constructor"
    },
    {
      "anonymous": false,
      "inputs": [
        {
          "indexed": true,
          "internalType": "address",
          "name": "borrower",
          "type": "address"
        },
        {
          "indexed": true,
          "internalType": "uint256",
          "name": "_loanId",
          "type": "uint256"
        },
        {
          "indexed": true,
          "internalType": "uint256",
          "name": "amount",
          "type": "uint256"
        },
        {
          "indexed": false,
          "internalType": "uint256",
          "name": "interest",
          "type": "uint256"
        },
        {
          "indexed": false,
          "internalType": "uint256",
          "name": "time",
          "type": "uint256"
        }
      ],
      "name": "Borrow",
      "type": "event"
    },
    {
      "anonymous": false,
      "inputs": [
        {
          "indexed": true,
          "internalType": "address",
          "name": "borrower",
          "type": "address"
        },
        {
          "indexed": true,
          "internalType": "uint256",
          "name": "_loanId",
          "type": "uint256"
        },
        {
          "indexed": true,
          "internalType": "uint256",
          "name": "amount",
          "type": "uint256"
        },
        {
          "indexed": false,
          "internalType": "uint256",
          "name": "interest",
          "type": "uint256"
        }
      ],
      "name": "Repay",
      "type": "event"
    },
    {
      "anonymous": false,
      "inputs": [
        {
          "indexed": true,
          "internalType": "uint256",
          "name": "",
          "type": "uint256"
        },
        {
          "indexed": true,
          "internalType": "address",
          "name": "",
          "type": "address"
        },
        {
          "indexed": true,
          "internalType": "uint256",
          "name": "",
          "type": "uint256"
        }
      ],
      "name": "Withdrawal",
      "type": "event"
    },
    {
      "anonymous": false,
      "inputs": [
        {
          "indexed": true,
          "internalType": "uint256",
          "name": "",
          "type": "uint256"
        },
        {
          "indexed": true,
          "internalType": "address",
          "name": "",
          "type": "address"
        },
        {
          "indexed": true,
          "internalType": "uint256",
          "name": "",
          "type": "uint256"
        }
      ],
      "name": "WithdrawalFailed",
      "type": "event"
    },
    {
      "stateMutability": "payable",
      "type": "fallback"
    },
    {
      "inputs": [],
      "name": "Borrow_interestRate",
      "outputs": [
        {
          "internalType": "uint256",
          "name": "",
          "type": "uint256"
        }
      ],
      "stateMutability": "view",
      "type": "function"
    },
    {
      "inputs": [],
      "name": "Lending_interestRate",
      "outputs": [
        {
          "internalType": "uint256",
          "name": "",
          "type": "uint256"
        }
      ],
      "stateMutability": "view",
      "type": "function"
    },
    {
      "inputs": [
        {
          "internalType": "uint256",
          "name": "_amount",
          "type": "uint256"
        },
        {
          "internalType": "address",
          "name": "_tokenContract",
          "type": "address"
        },
        {
          "internalType": "uint256",
          "name": "_tokenId",
          "type": "uint256"
        },
        {
          "internalType": "uint256",
          "name": "_time",
          "type": "uint256"
        },
        {
          "internalType": "address",
          "name": "_priceFeed",
          "type": "address"
        }
      ],
      "name": "borrow",
      "outputs": [],
      "stateMutability": "payable",
      "type": "function"
    },
    {
      "inputs": [
        {
          "internalType": "address",
          "name": "",
          "type": "address"
        },
        {
          "internalType": "address",
          "name": "",
          "type": "address"
        }
      ],
      "name": "collateralBalances",
      "outputs": [
        {
          "internalType": "uint256",
          "name": "",
          "type": "uint256"
        }
      ],
      "stateMutability": "view",
      "type": "function"
    },
    {
      "inputs": [
        {
          "internalType": "uint256",
          "name": "_time",
          "type": "uint256"
        }
      ],
      "name": "depositToPool",
      "outputs": [],
      "stateMutability": "payable",
      "type": "function"
    },
    {
      "inputs": [
        {
          "internalType": "address",
          "name": "",
          "type": "address"
        },
        {
          "internalType": "uint256",
          "name": "",
          "type": "uint256"
        }
      ],
      "name": "deposits",
      "outputs": [
        {
          "internalType": "uint256",
          "name": "amount",
          "type": "uint256"
        },
        {
          "internalType": "uint256",
          "name": "time",
          "type": "uint256"
        },
        {
          "internalType": "uint256",
          "name": "interest",
          "type": "uint256"
        }
      ],
      "stateMutability": "view",
      "type": "function"
    },
    {
      "inputs": [
        {
          "internalType": "address",
          "name": "_tokenContract",
          "type": "address"
        },
        {
          "internalType": "address",
          "name": "_priceFeed",
          "type": "address"
        }
      ],
      "name": "getNftCollateralValue",
      "outputs": [
        {
          "internalType": "uint256",
          "name": "",
          "type": "uint256"
        }
      ],
      "stateMutability": "view",
      "type": "function"
    },
    {
      "inputs": [
        {
          "internalType": "address",
          "name": "_priceFeed",
          "type": "address"
        }
      ],
      "name": "getPrice",
      "outputs": [
        {
          "internalType": "uint256",
          "name": "",
          "type": "uint256"
        }
      ],
      "stateMutability": "view",
      "type": "function"
    },
    {
      "inputs": [
        {
          "internalType": "address",
          "name": "",
          "type": "address"
        },
        {
          "internalType": "uint256",
          "name": "",
          "type": "uint256"
        }
      ],
      "name": "loans",
      "outputs": [
        {
          "internalType": "address",
          "name": "borrower",
          "type": "address"
        },
        {
          "internalType": "address",
          "name": "tokenContract",
          "type": "address"
        },
        {
          "internalType": "uint256",
          "name": "tokenId",
          "type": "uint256"
        },
        {
          "internalType": "uint256",
          "name": "amount",
          "type": "uint256"
        },
        {
          "internalType": "uint256",
          "name": "collateralValue",
          "type": "uint256"
        },
        {
          "internalType": "uint256",
          "name": "interest",
          "type": "uint256"
        },
        {
          "internalType": "uint256",
          "name": "time",
          "type": "uint256"
        },
        {
          "internalType": "bool",
          "name": "active",
          "type": "bool"
        }
      ],
      "stateMutability": "view",
      "type": "function"
    },
    {
      "inputs": [],
      "name": "maxLtv",
      "outputs": [
        {
          "internalType": "uint256",
          "name": "",
          "type": "uint256"
        }
      ],
      "stateMutability": "view",
      "type": "function"
    },
    {
      "inputs": [],
      "name": "owner",
      "outputs": [
        {
          "internalType": "address",
          "name": "",
          "type": "address"
        }
      ],
      "stateMutability": "view",
      "type": "function"
    },
    {
      "inputs": [
        {
          "internalType": "uint256",
          "name": "_loanId",
          "type": "uint256"
        },
        {
          "internalType": "uint256",
          "name": "_time",
          "type": "uint256"
        }
      ],
      "name": "repay",
      "outputs": [],
      "stateMutability": "payable",
      "type": "function"
    },
    {
      "inputs": [
        {
          "internalType": "uint256",
          "name": "_maxLtv",
          "type": "uint256"
        }
      ],
      "name": "setLoanToCollateral",
      "outputs": [],
      "stateMutability": "nonpayable",
      "type": "function"
    },
    {
      "inputs": [
        {
          "internalType": "uint256",
          "name": "_Borrow_interestRate",
          "type": "uint256"
        }
      ],
      "name": "set_Borrow_InterestRate",
      "outputs": [],
      "stateMutability": "nonpayable",
      "type": "function"
    },
    {
      "inputs": [
        {
          "internalType": "uint256",
          "name": "_Lending_interestRate",
          "type": "uint256"
        }
      ],
      "name": "set_Lend_InterestRate",
      "outputs": [],
      "stateMutability": "nonpayable",
      "type": "function"
    },
    {
      "inputs": [
        {
          "internalType": "uint256",
          "name": "_depId",
          "type": "uint256"
        },
        {
          "internalType": "uint256",
          "name": "_time",
          "type": "uint256"
        }
      ],
      "name": "withdrawToPool",
      "outputs": [],
      "stateMutability": "nonpayable",
      "type": "function"
    },
    {
      "stateMutability": "payable",
      "type": "receive"
    }
  ],
  "bytecode": "0x6080604052662386f26fc1000060025560405162002e0e38038062002e0e8339818101604052810190620000349190620000aa565b82600081905550816003819055508060018190555033600460006101000a81548173ffffffffffffffffffffffffffffffffffffffff021916908373ffffffffffffffffffffffffffffffffffffffff16021790555050505062000124565b600081519050620000a4816200010a565b92915050565b600080600060608486031215620000c057600080fd5b6000620000d08682870162000093565b9350506020620000e38682870162000093565b9250506040620000f68682870162000093565b9150509250925092565b6000819050919050565b620001158162000100565b81146200012157600080fd5b50565b612cda80620001346000396000f3fe6080604052600436106100f75760003560e01c806368b0e0701161008a578063c3c9e85211610059578063c3c9e8521461032f578063d6d681771461035a578063d6dbe5ad14610399578063d8aed145146103c2576100fe565b806368b0e0701461027b5780638da5cb5b1461029757806398c61c37146102c2578063a94fb4a614610306576100fe565b8063405b8f67116100c6578063405b8f67146101af57806341976e09146101d85780634ec3b3fe1461021557806352a12db61461023e576100fe565b80631c5ef1ab146101005780632590f0221461011c57806339ecf9ba146101475780633a12c6da14610184576100fe565b366100fe57005b005b61011a60048036038101906101159190611f24565b6103de565b005b34801561012857600080fd5b506101316108d7565b60405161013e91906125a9565b60405180910390f35b34801561015357600080fd5b5061016e60048036038101906101699190611e31565b6108dd565b60405161017b91906125a9565b60405180910390f35b34801561019057600080fd5b50610199610902565b6040516101a691906125a9565b60405180910390f35b3480156101bb57600080fd5b506101d660048036038101906101d19190611ed2565b610908565b005b3480156101e457600080fd5b506101ff60048036038101906101fa9190611ddf565b61096c565b60405161020c91906125a9565b60405180910390f35b34801561022157600080fd5b5061023c60048036038101906102379190611f9b565b610978565b005b34801561024a57600080fd5b5061026560048036038101906102609190611e31565b610bca565b60405161027291906125a9565b60405180910390f35b61029560048036038101906102909190611ed2565b610cd0565b005b3480156102a357600080fd5b506102ac610e32565b6040516102b9919061229e565b60405180910390f35b3480156102ce57600080fd5b506102e960048036038101906102e49190611e6d565b610e58565b6040516102fd9897969594939291906122f0565b60405180910390f35b34801561031257600080fd5b5061032d60048036038101906103289190611ed2565b610f0a565b005b34801561033b57600080fd5b50610344610f6e565b60405161035191906125a9565b60405180910390f35b34801561036657600080fd5b50610381600480360381019061037c9190611e6d565b610f74565b604051610390939291906125ed565b60405180910390f35b3480156103a557600080fd5b506103c060048036038101906103bb9190611ed2565b610fbb565b005b6103dc60048036038101906103d79190611f9b565b61101f565b005b60008511610421576040517f08c379a0000000000000000000000000000000000000000000000000000000008152600401610418906123a9565b60405180910390fd5b600061042d8583610bca565b9050600061045a61271061044c6001548561145e90919063ffffffff16565b61147490919063ffffffff16565b90508087111561049f576040517f08c379a000000000000000000000000000000000000000000000000000000000815260040161049690612449565b60405180910390fd5b8573ffffffffffffffffffffffffffffffffffffffff166301ffc9a77f80ac58cd000000000000000000000000000000000000000000000000000000006040518263ffffffff1660e01b81526004016104f8919061236e565b60206040518083038186803b15801561051057600080fd5b505afa158015610524573d6000803e3d6000fd5b505050506040513d601f19601f820116820180604052508101906105489190611ea9565b1561055d5761055833878761148a565b610598565b6040517f08c379a000000000000000000000000000000000000000000000000000000000815260040161058f90612569565b60405180910390fd5b60006105c36127106105b56000548b61145e90919063ffffffff16565b61147490919063ffffffff16565b905060006040518061010001604052803373ffffffffffffffffffffffffffffffffffffffff1681526020018973ffffffffffffffffffffffffffffffffffffffff1681526020018881526020018a81526020016103e88152602001838152602001878152602001600115158152509050600660003373ffffffffffffffffffffffffffffffffffffffff1673ffffffffffffffffffffffffffffffffffffffff16815260200190815260200160002081908060018154018082558091505060019003906000526020600020906008020160009091909190915060008201518160000160006101000a81548173ffffffffffffffffffffffffffffffffffffffff021916908373ffffffffffffffffffffffffffffffffffffffff16021790555060208201518160010160006101000a81548173ffffffffffffffffffffffffffffffffffffffff021916908373ffffffffffffffffffffffffffffffffffffffff16021790555060408201518160020155606082015181600301556080820151816004015560a0820151816005015560c0820151816006015560e08201518160070160006101000a81548160ff021916908315150217905550505060003373ffffffffffffffffffffffffffffffffffffffff168a6040516107a590612289565b60006040518083038185875af1925050503d80600081146107e2576040519150601f19603f3d011682016040523d82523d6000602084013e6107e7565b606091505b505090508061082b576040517f08c379a000000000000000000000000000000000000000000000000000000000815260040161082290612409565b60405180910390fd5b896001600660003373ffffffffffffffffffffffffffffffffffffffff1673ffffffffffffffffffffffffffffffffffffffff1681526020019081526020016000208054905061087b9190612721565b3373ffffffffffffffffffffffffffffffffffffffff167f2dd79f4fccfd18c360ce7f9132f3621bf05eee18f995224badb32d17f172df73868b6040516108c39291906125c4565b60405180910390a450505050505050505050565b60035481565b6007602052816000526040600020602052806000526040600020600091509150505481565b60015481565b600460009054906101000a900473ffffffffffffffffffffffffffffffffffffffff1673ffffffffffffffffffffffffffffffffffffffff163373ffffffffffffffffffffffffffffffffffffffff161461096257600080fd5b8060038190555050565b60006103e89050919050565b6000600560003373ffffffffffffffffffffffffffffffffffffffff1673ffffffffffffffffffffffffffffffffffffffff16815260200190815260200160002083815481106109f1577f4e487b7100000000000000000000000000000000000000000000000000000000600052603260045260246000fd5b906000526020600020906003020190506000816000015411610a48576040517f08c379a0000000000000000000000000000000000000000000000000000000008152600401610a3f90612589565b60405180910390fd5b600081600001548260020154610a5e9190612640565b90508160010154831015610a7457816000015490505b6000826000018190555060003373ffffffffffffffffffffffffffffffffffffffff1682604051610aa490612289565b60006040518083038185875af1925050503d8060008114610ae1576040519150601f19603f3d011682016040523d82523d6000602084013e610ae6565b606091505b505090508015610b3a57813373ffffffffffffffffffffffffffffffffffffffff16867f37e8063b72a944a76de602f32b82fd8c2a1c6f99564c727ffaf913c7762cd42060405160405180910390a4610bc3565b818360000181905550813373ffffffffffffffffffffffffffffffffffffffff16867f9379604cf4544b1a7df5c72a2d62c5034f79b750844f6969cc81a6efd9a726ec60405160405180910390a46040517f08c379a0000000000000000000000000000000000000000000000000000000008152600401610bba906123e9565b60405180910390fd5b5050505050565b600080610bd68361096c565b90508373ffffffffffffffffffffffffffffffffffffffff166301ffc9a77f5b5e139f000000000000000000000000000000000000000000000000000000006040518263ffffffff1660e01b8152600401610c31919061236e565b60206040518083038186803b158015610c4957600080fd5b505afa158015610c5d573d6000803e3d6000fd5b505050506040513d601f19601f82011682018060405250810190610c819190611ea9565b15610c8f5780915050610cca565b6040517f08c379a0000000000000000000000000000000000000000000000000000000008152600401610cc190612569565b60405180910390fd5b92915050565b60003411610d13576040517f08c379a0000000000000000000000000000000000000000000000000000000008152600401610d0a906123a9565b60405180910390fd5b600254341115610d58576040517f08c379a0000000000000000000000000000000000000000000000000000000008152600401610d4f90612529565b60405180910390fd5b6000610d83612710610d756003543461145e90919063ffffffff16565b61147490919063ffffffff16565b905060006040518060600160405280348152602001848152602001838152509050600560003373ffffffffffffffffffffffffffffffffffffffff1673ffffffffffffffffffffffffffffffffffffffff1681526020019081526020016000208190806001815401808255809150506001900390600052602060002090600302016000909190919091506000820151816000015560208201518160010155604082015181600201555050505050565b600460009054906101000a900473ffffffffffffffffffffffffffffffffffffffff1681565b60066020528160005260406000208181548110610e7457600080fd5b9060005260206000209060080201600091509150508060000160009054906101000a900473ffffffffffffffffffffffffffffffffffffffff16908060010160009054906101000a900473ffffffffffffffffffffffffffffffffffffffff16908060020154908060030154908060040154908060050154908060060154908060070160009054906101000a900460ff16905088565b600460009054906101000a900473ffffffffffffffffffffffffffffffffffffffff1673ffffffffffffffffffffffffffffffffffffffff163373ffffffffffffffffffffffffffffffffffffffff1614610f6457600080fd5b8060018190555050565b60005481565b60056020528160005260406000208181548110610f9057600080fd5b9060005260206000209060030201600091509150508060000154908060010154908060020154905083565b600460009054906101000a900473ffffffffffffffffffffffffffffffffffffffff1673ffffffffffffffffffffffffffffffffffffffff163373ffffffffffffffffffffffffffffffffffffffff161461101557600080fd5b8060008190555050565b6000600660003373ffffffffffffffffffffffffffffffffffffffff1673ffffffffffffffffffffffffffffffffffffffff1681526020019081526020016000208381548110611098577f4e487b7100000000000000000000000000000000000000000000000000000000600052603260045260246000fd5b9060005260206000209060080201905080600601548211156110ef576040517f08c379a00000000000000000000000000000000000000000000000000000000081526004016110e690612429565b60405180910390fd5b8060000160009054906101000a900473ffffffffffffffffffffffffffffffffffffffff1673ffffffffffffffffffffffffffffffffffffffff163373ffffffffffffffffffffffffffffffffffffffff1614611181576040517f08c379a000000000000000000000000000000000000000000000000000000000815260040161117890612469565b60405180910390fd5b8060070160009054906101000a900460ff166111d2576040517f08c379a00000000000000000000000000000000000000000000000000000000081526004016111c9906123c9565b60405180910390fd5b60006111ef8260050154836003015461199d90919063ffffffff16565b90508160010160009054906101000a900473ffffffffffffffffffffffffffffffffffffffff1673ffffffffffffffffffffffffffffffffffffffff166301ffc9a77f80ac58cd000000000000000000000000000000000000000000000000000000006040518263ffffffff1660e01b815260040161126e919061236e565b60206040518083038186803b15801561128657600080fd5b505afa15801561129a573d6000803e3d6000fd5b505050506040513d601f19601f820116820180604052508101906112be9190611ea9565b156112fb576112f6338360010160009054906101000a900473ffffffffffffffffffffffffffffffffffffffff1684600201546119b3565b611336565b6040517f08c379a000000000000000000000000000000000000000000000000000000000815260040161132d90612569565b60405180910390fd5b60008260070160006101000a81548160ff02191690831515021790555060003073ffffffffffffffffffffffffffffffffffffffff168260405161137990612289565b60006040518083038185875af1925050503d80600081146113b6576040519150601f19603f3d011682016040523d82523d6000602084013e6113bb565b606091505b50509050806113ff576040517f08c379a00000000000000000000000000000000000000000000000000000000081526004016113f690612409565b60405180910390fd5b8260030154853373ffffffffffffffffffffffffffffffffffffffff167f2fe77b1c99aca6b022b8efc6e3e8dd1b48b30748709339b65c50ef3263443e09866005015460405161144f91906125a9565b60405180910390a45050505050565b6000818361146c91906126c7565b905092915050565b600081836114829190612696565b905092915050565b60008290508373ffffffffffffffffffffffffffffffffffffffff163373ffffffffffffffffffffffffffffffffffffffff16146114fd576040517f08c379a00000000000000000000000000000000000000000000000000000000081526004016114f490612509565b60405180910390fd5b60008173ffffffffffffffffffffffffffffffffffffffff166370a08231866040518263ffffffff1660e01b8152600401611538919061229e565b60206040518083038186803b15801561155057600080fd5b505afa158015611564573d6000803e3d6000fd5b505050506040513d601f19601f820116820180604052508101906115889190611efb565b116115c8576040517f08c379a00000000000000000000000000000000000000000000000000000000081526004016115bf906124c9565b60405180910390fd5b8373ffffffffffffffffffffffffffffffffffffffff168173ffffffffffffffffffffffffffffffffffffffff16636352211e846040518263ffffffff1660e01b815260040161161891906125a9565b60206040518083038186803b15801561163057600080fd5b505afa158015611644573d6000803e3d6000fd5b505050506040513d601f19601f820116820180604052508101906116689190611e08565b73ffffffffffffffffffffffffffffffffffffffff16146116be576040517f08c379a00000000000000000000000000000000000000000000000000000000081526004016116b590612549565b60405180910390fd5b8073ffffffffffffffffffffffffffffffffffffffff166370a08231856040518263ffffffff1660e01b81526004016116f7919061229e565b60206040518083038186803b15801561170f57600080fd5b505afa158015611723573d6000803e3d6000fd5b505050506040513d601f19601f820116820180604052508101906117479190611efb565b6117d76001600760008873ffffffffffffffffffffffffffffffffffffffff1673ffffffffffffffffffffffffffffffffffffffff16815260200190815260200160002060008773ffffffffffffffffffffffffffffffffffffffff1673ffffffffffffffffffffffffffffffffffffffff1681526020019081526020016000205461199d90919063ffffffff16565b1115611818576040517f08c379a000000000000000000000000000000000000000000000000000000000815260040161180f90612389565b60405180910390fd5b8073ffffffffffffffffffffffffffffffffffffffff166323b872dd8530856040518463ffffffff1660e01b8152600401611855939291906122b9565b600060405180830381600087803b15801561186f57600080fd5b505af1158015611883573d6000803e3d6000fd5b505050506119176001600760008773ffffffffffffffffffffffffffffffffffffffff1673ffffffffffffffffffffffffffffffffffffffff16815260200190815260200160002060008673ffffffffffffffffffffffffffffffffffffffff1673ffffffffffffffffffffffffffffffffffffffff1681526020019081526020016000205461199d90919063ffffffff16565b600760008673ffffffffffffffffffffffffffffffffffffffff1673ffffffffffffffffffffffffffffffffffffffff16815260200190815260200160002060008573ffffffffffffffffffffffffffffffffffffffff1673ffffffffffffffffffffffffffffffffffffffff1681526020019081526020016000208190555050505050565b600081836119ab9190612640565b905092915050565b60008290508373ffffffffffffffffffffffffffffffffffffffff163373ffffffffffffffffffffffffffffffffffffffff1614611a26576040517f08c379a0000000000000000000000000000000000000000000000000000000008152600401611a1d906124e9565b60405180910390fd5b6000600760008673ffffffffffffffffffffffffffffffffffffffff1673ffffffffffffffffffffffffffffffffffffffff16815260200190815260200160002060008573ffffffffffffffffffffffffffffffffffffffff1673ffffffffffffffffffffffffffffffffffffffff1681526020019081526020016000205411611ae5576040517f08c379a0000000000000000000000000000000000000000000000000000000008152600401611adc90612489565b60405180910390fd5b3073ffffffffffffffffffffffffffffffffffffffff168173ffffffffffffffffffffffffffffffffffffffff16636352211e846040518263ffffffff1660e01b8152600401611b3591906125a9565b60206040518083038186803b158015611b4d57600080fd5b505afa158015611b61573d6000803e3d6000fd5b505050506040513d601f19601f82011682018060405250810190611b859190611e08565b73ffffffffffffffffffffffffffffffffffffffff1614611bdb576040517f08c379a0000000000000000000000000000000000000000000000000000000008152600401611bd2906124a9565b60405180910390fd5b8073ffffffffffffffffffffffffffffffffffffffff166323b872dd3086856040518463ffffffff1660e01b8152600401611c18939291906122b9565b600060405180830381600087803b158015611c3257600080fd5b505af1158015611c46573d6000803e3d6000fd5b50505050611cda6001600760008773ffffffffffffffffffffffffffffffffffffffff1673ffffffffffffffffffffffffffffffffffffffff16815260200190815260200160002060008673ffffffffffffffffffffffffffffffffffffffff1673ffffffffffffffffffffffffffffffffffffffff16815260200190815260200160002054611d6090919063ffffffff16565b600760008673ffffffffffffffffffffffffffffffffffffffff1673ffffffffffffffffffffffffffffffffffffffff16815260200190815260200160002060008573ffffffffffffffffffffffffffffffffffffffff1673ffffffffffffffffffffffffffffffffffffffff1681526020019081526020016000208190555050505050565b60008183611d6e9190612721565b905092915050565b600081359050611d8581612c5f565b92915050565b600081519050611d9a81612c5f565b92915050565b600081519050611daf81612c76565b92915050565b600081359050611dc481612c8d565b92915050565b600081519050611dd981612c8d565b92915050565b600060208284031215611df157600080fd5b6000611dff84828501611d76565b91505092915050565b600060208284031215611e1a57600080fd5b6000611e2884828501611d8b565b91505092915050565b60008060408385031215611e4457600080fd5b6000611e5285828601611d76565b9250506020611e6385828601611d76565b9150509250929050565b60008060408385031215611e8057600080fd5b6000611e8e85828601611d76565b9250506020611e9f85828601611db5565b9150509250929050565b600060208284031215611ebb57600080fd5b6000611ec984828501611da0565b91505092915050565b600060208284031215611ee457600080fd5b6000611ef284828501611db5565b91505092915050565b600060208284031215611f0d57600080fd5b6000611f1b84828501611dca565b91505092915050565b600080600080600060a08688031215611f3c57600080fd5b6000611f4a88828901611db5565b9550506020611f5b88828901611d76565b9450506040611f6c88828901611db5565b9350506060611f7d88828901611db5565b9250506080611f8e88828901611d76565b9150509295509295909350565b60008060408385031215611fae57600080fd5b6000611fbc85828601611db5565b9250506020611fcd85828601611db5565b9150509250929050565b611fe081612755565b82525050565b611fef81612767565b82525050565b611ffe81612773565b82525050565b6000612011602a8361262f565b915061201c82612827565b604082019050919050565b6000612034601d8361262f565b915061203f82612876565b602082019050919050565b600061205760168361262f565b91506120628261289f565b602082019050919050565b600061207a60258361262f565b9150612085826128c8565b604082019050919050565b600061209d60248361262f565b91506120a882612917565b604082019050919050565b60006120c060248361262f565b91506120cb82612966565b604082019050919050565b60006120e3601e8361262f565b91506120ee826129b5565b602082019050919050565b600061210660208361262f565b9150612111826129de565b602082019050919050565b600061212960268361262f565b915061213482612a07565b604082019050919050565b600061214c60258361262f565b915061215782612a56565b604082019050919050565b600061216f60168361262f565b915061217a82612aa5565b602082019050919050565b6000612192600083612624565b915061219d82612ace565b600082019050919050565b60006121b560258361262f565b91506121c082612ad1565b604082019050919050565b60006121d860248361262f565b91506121e382612b20565b604082019050919050565b60006121fb60208361262f565b915061220682612b6f565b602082019050919050565b600061221e60268361262f565b915061222982612b98565b604082019050919050565b600061224160168361262f565b915061224c82612be7565b602082019050919050565b600061226460268361262f565b915061226f82612c10565b604082019050919050565b612283816127bf565b82525050565b600061229482612185565b9150819050919050565b60006020820190506122b36000830184611fd7565b92915050565b60006060820190506122ce6000830186611fd7565b6122db6020830185611fd7565b6122e8604083018461227a565b949350505050565b600061010082019050612306600083018b611fd7565b612313602083018a611fd7565b612320604083018961227a565b61232d606083018861227a565b61233a608083018761227a565b61234760a083018661227a565b61235460c083018561227a565b61236160e0830184611fe6565b9998505050505050505050565b60006020820190506123836000830184611ff5565b92915050565b600060208201905081810360008301526123a281612004565b9050919050565b600060208201905081810360008301526123c281612027565b9050919050565b600060208201905081810360008301526123e28161204a565b9050919050565b600060208201905081810360008301526124028161206d565b9050919050565b6000602082019050818103600083015261242281612090565b9050919050565b60006020820190508181036000830152612442816120b3565b9050919050565b60006020820190508181036000830152612462816120d6565b9050919050565b60006020820190508181036000830152612482816120f9565b9050919050565b600060208201905081810360008301526124a28161211c565b9050919050565b600060208201905081810360008301526124c28161213f565b9050919050565b600060208201905081810360008301526124e281612162565b9050919050565b60006020820190508181036000830152612502816121a8565b9050919050565b60006020820190508181036000830152612522816121cb565b9050919050565b60006020820190508181036000830152612542816121ee565b9050919050565b6000602082019050818103600083015261256281612211565b9050919050565b6000602082019050818103600083015261258281612234565b9050919050565b600060208201905081810360008301526125a281612257565b9050919050565b60006020820190506125be600083018461227a565b92915050565b60006040820190506125d9600083018561227a565b6125e6602083018461227a565b9392505050565b6000606082019050612602600083018661227a565b61260f602083018561227a565b61261c604083018461227a565b949350505050565b600081905092915050565b600082825260208201905092915050565b600061264b826127bf565b9150612656836127bf565b9250827fffffffffffffffffffffffffffffffffffffffffffffffffffffffffffffffff0382111561268b5761268a6127c9565b5b828201905092915050565b60006126a1826127bf565b91506126ac836127bf565b9250826126bc576126bb6127f8565b5b828204905092915050565b60006126d2826127bf565b91506126dd836127bf565b9250817fffffffffffffffffffffffffffffffffffffffffffffffffffffffffffffffff0483118215151615612716576127156127c9565b5b828202905092915050565b600061272c826127bf565b9150612737836127bf565b92508282101561274a576127496127c9565b5b828203905092915050565b60006127608261279f565b9050919050565b60008115159050919050565b60007fffffffff0000000000000000000000000000000000000000000000000000000082169050919050565b600073ffffffffffffffffffffffffffffffffffffffff82169050919050565b6000819050919050565b7f4e487b7100000000000000000000000000000000000000000000000000000000600052601160045260246000fd5b7f4e487b7100000000000000000000000000000000000000000000000000000000600052601260045260246000fd5b7f426f72726f77657220686173206e6f2072656d61696e696e6720636f6c6c617460008201527f6572616c20736c6f747300000000000000000000000000000000000000000000602082015250565b7f416d6f756e74206d7573742062652067726561746572207468616e2030000000600082015250565b7f4c6f616e20697320616c726561647920636c6f73656400000000000000000000600082015250565b7f496e7465726e616c206572726f723a2066756e6473206e6f74207472616e736660008201527f6572726564000000000000000000000000000000000000000000000000000000602082015250565b7f496e7465726e616c206572726f722066756e6473206e6f74207472616e73666560008201527f7272656400000000000000000000000000000000000000000000000000000000602082015250565b7f4e4654206c6971756964617465642064656274206e6f74207061696420696e2060008201527f74696d6500000000000000000000000000000000000000000000000000000000602082015250565b7f416d6f756e74206578636565647320626f72726f77696e6720706f7765720000600082015250565b7f4f6e6c7920626f72726f7765722063616e20726570617920746865206c6f616e600082015250565b7f426f72726f77657220686173206e6f20636f6c6c61746572616c20746f20776960008201527f7468647261770000000000000000000000000000000000000000000000000000602082015250565b7f546f6b656e206973206e6f74206265696e67207573656420617320636f6c6c6160008201527f746572616c000000000000000000000000000000000000000000000000000000602082015250565b7f426f72726f77657220686173206e6f20746f6b656e7300000000000000000000600082015250565b50565b7f4f6e6c7920626f72726f7765722063616e20776974686472617720636f6c6c6160008201527f746572616c000000000000000000000000000000000000000000000000000000602082015250565b7f4f6e6c7920626f72726f7765722063616e206465706f73697420636f6c6c617460008201527f6572616c00000000000000000000000000000000000000000000000000000000602082015250565b7f43616e2774206465706f736974206d6f7265207468616e20302e303120455448600082015250565b7f426f72726f776572206973206e6f7420746865206f776e6572206f662074686560008201527f20746f6b656e0000000000000000000000000000000000000000000000000000602082015250565b7f556e737570706f7274656420746f6b656e207479706500000000000000000000600082015250565b7f4465706f736974206e6f7420666f756e64206f7220616c72656164792077697460008201527f68647261776e0000000000000000000000000000000000000000000000000000602082015250565b612c6881612755565b8114612c7357600080fd5b50565b612c7f81612767565b8114612c8a57600080fd5b50565b612c96816127bf565b8114612ca157600080fd5b5056fea2646970667358221220ffd95ed28373ce5e448a90f4045fb32712b44e6fee1869adeb5cd54752142c1864736f6c63430008040033",
  "linkReferences": {},
  "deployedLinkReferences": {}
}